{
  "contractName": "Campaign",
  "abi": [
    {
      "inputs": [
        {
          "internalType": "uint256[]",
          "name": "_milestones",
          "type": "uint256[]"
        },
        {
          "internalType": "uint256",
          "name": "_minPledge",
          "type": "uint256"
        }
      ],
      "stateMutability": "nonpayable",
      "type": "constructor"
    },
    {
      "anonymous": false,
      "inputs": [
        {
          "indexed": true,
          "internalType": "address",
          "name": "previousOwner",
          "type": "address"
        },
        {
          "indexed": true,
          "internalType": "address",
          "name": "newOwner",
          "type": "address"
        }
      ],
      "name": "OwnershipTransferred",
      "type": "event"
    },
    {
      "inputs": [],
      "name": "currentMilestone",
      "outputs": [
        {
          "internalType": "uint256",
          "name": "",
          "type": "uint256"
        }
      ],
      "stateMutability": "view",
      "type": "function",
      "constant": true
    },
    {
      "inputs": [],
      "name": "donatedAmount",
      "outputs": [
        {
          "internalType": "uint256",
          "name": "",
          "type": "uint256"
        }
      ],
      "stateMutability": "view",
      "type": "function",
      "constant": true
    },
    {
      "inputs": [
        {
          "internalType": "address",
          "name": "",
          "type": "address"
        }
      ],
      "name": "donations",
      "outputs": [
        {
          "internalType": "uint256",
          "name": "",
          "type": "uint256"
        }
      ],
      "stateMutability": "view",
      "type": "function",
      "constant": true
    },
    {
      "inputs": [
        {
          "internalType": "uint256",
          "name": "",
          "type": "uint256"
        }
      ],
      "name": "milestones",
      "outputs": [
        {
          "internalType": "uint256",
          "name": "",
          "type": "uint256"
        }
      ],
      "stateMutability": "view",
      "type": "function",
      "constant": true
    },
    {
      "inputs": [],
      "name": "milestonesCount",
      "outputs": [
        {
          "internalType": "uint256",
          "name": "",
          "type": "uint256"
        }
      ],
      "stateMutability": "view",
      "type": "function",
      "constant": true
    },
    {
      "inputs": [],
      "name": "minPledge",
      "outputs": [
        {
          "internalType": "uint256",
          "name": "",
          "type": "uint256"
        }
      ],
      "stateMutability": "view",
      "type": "function",
      "constant": true
    },
    {
      "inputs": [],
      "name": "owner",
      "outputs": [
        {
          "internalType": "address",
          "name": "",
          "type": "address"
        }
      ],
      "stateMutability": "view",
      "type": "function",
      "constant": true
    },
    {
      "inputs": [],
      "name": "renounceOwnership",
      "outputs": [],
      "stateMutability": "nonpayable",
      "type": "function"
    },
    {
      "inputs": [
        {
          "internalType": "address",
          "name": "newOwner",
          "type": "address"
        }
      ],
      "name": "transferOwnership",
      "outputs": [],
      "stateMutability": "nonpayable",
      "type": "function"
    },
    {
      "stateMutability": "payable",
      "type": "receive",
      "payable": true
    },
    {
      "inputs": [],
      "name": "campaignIsFinished",
      "outputs": [
        {
          "internalType": "bool",
          "name": "",
          "type": "bool"
        }
      ],
      "stateMutability": "view",
      "type": "function",
      "constant": true
    },
    {
      "inputs": [],
      "name": "collect",
      "outputs": [],
      "stateMutability": "nonpayable",
      "type": "function"
    },
    {
      "inputs": [
        {
          "internalType": "uint256",
          "name": "step",
          "type": "uint256"
        }
      ],
      "name": "canSeeContent",
      "outputs": [
        {
          "internalType": "bool",
          "name": "",
          "type": "bool"
        }
      ],
      "stateMutability": "view",
      "type": "function",
      "constant": true
    }
  ],
  "bytecode": "0x60c06040523480156200001157600080fd5b50604051620012c4380380620012c483398181016040528101906200003791906200038a565b620000576200004b6200008960201b60201c565b6200009160201b60201c565b81600490805190602001906200006f92919062000155565b508151608081815250508060a081815250505050620003f0565b600033905090565b60008060009054906101000a900473ffffffffffffffffffffffffffffffffffffffff169050816000806101000a81548173ffffffffffffffffffffffffffffffffffffffff021916908373ffffffffffffffffffffffffffffffffffffffff1602179055508173ffffffffffffffffffffffffffffffffffffffff168173ffffffffffffffffffffffffffffffffffffffff167f8be0079c531659141344cd1fd0a4f28419497f9722a3daafe3b4186f6b6457e060405160405180910390a35050565b82805482825590600052602060002090810192821562000194579160200282015b828111156200019357825182559160200191906001019062000176565b5b509050620001a39190620001a7565b5090565b5b80821115620001c2576000816000905550600101620001a8565b5090565b6000604051905090565b600080fd5b600080fd5b600080fd5b6000601f19601f8301169050919050565b7f4e487b7100000000000000000000000000000000000000000000000000000000600052604160045260246000fd5b6200022a82620001df565b810181811067ffffffffffffffff821117156200024c576200024b620001f0565b5b80604052505050565b600062000261620001c6565b90506200026f82826200021f565b919050565b600067ffffffffffffffff821115620002925762000291620001f0565b5b602082029050602081019050919050565b600080fd5b6000819050919050565b620002bd81620002a8565b8114620002c957600080fd5b50565b600081519050620002dd81620002b2565b92915050565b6000620002fa620002f48462000274565b62000255565b9050808382526020820190506020840283018581111562000320576200031f620002a3565b5b835b818110156200034d5780620003388882620002cc565b84526020840193505060208101905062000322565b5050509392505050565b600082601f8301126200036f576200036e620001da565b5b815162000381848260208601620002e3565b91505092915050565b60008060408385031215620003a457620003a3620001d0565b5b600083015167ffffffffffffffff811115620003c557620003c4620001d5565b5b620003d38582860162000357565b9250506020620003e685828601620002cc565b9150509250929050565b60805160a051610e93620004316000396000818160b2015281816104fc015261079a01526000818161018501528181610520015261054c0152610e936000f3fe6080604052600436106100ab5760003560e01c8063cbb45cbe11610064578063cbb45cbe14610321578063cc6cb19a1461034c578063e522538114610389578063e5b14c60146103a0578063e89e4ed6146103dd578063f2fde38b1461041a5761022e565b80635ab7f1a814610233578063715018a61461025e5780638da5cb5b146102755780639b4b1786146102a0578063ab36e4a6146102cb578063b0304813146102f65761022e565b3661022e577f0000000000000000000000000000000000000000000000000000000000000000341015610113576040517f08c379a000000000000000000000000000000000000000000000000000000000815260040161010a90610a48565b60405180910390fd5b34600560008282546101259190610aa1565b9250508190555034600160003373ffffffffffffffffffffffffffffffffffffffff1673ffffffffffffffffffffffffffffffffffffffff168152602001908152602001600020600082825461017b9190610aa1565b925050819055505b7f00000000000000000000000000000000000000000000000000000000000000006006541080156101d557506004600654815481106101c5576101c4610af7565b5b9060005260206000200154600554115b1561022c576001600660008282546101ed9190610aa1565b92505081905550600460016006546102059190610b26565b8154811061021657610215610af7565b5b9060005260206000200154600381905550610183565b005b600080fd5b34801561023f57600080fd5b50610248610443565b6040516102559190610b69565b60405180910390f35b34801561026a57600080fd5b50610273610449565b005b34801561028157600080fd5b5061028a6104d1565b6040516102979190610bc5565b60405180910390f35b3480156102ac57600080fd5b506102b56104fa565b6040516102c29190610b69565b60405180910390f35b3480156102d757600080fd5b506102e061051e565b6040516102ed9190610b69565b60405180910390f35b34801561030257600080fd5b5061030b610542565b6040516103189190610b69565b60405180910390f35b34801561032d57600080fd5b50610336610548565b6040516103439190610bfb565b60405180910390f35b34801561035857600080fd5b50610373600480360381019061036e9190610c47565b610575565b6040516103809190610b69565b60405180910390f35b34801561039557600080fd5b5061039e61058d565b005b3480156103ac57600080fd5b506103c760048036038101906103c29190610ca0565b610747565b6040516103d49190610bfb565b60405180910390f35b3480156103e957600080fd5b5061040460048036038101906103ff9190610ca0565b610804565b6040516104119190610b69565b60405180910390f35b34801561042657600080fd5b50610441600480360381019061043c9190610c47565b610828565b005b60055481565b61045161091f565b73ffffffffffffffffffffffffffffffffffffffff1661046f6104d1565b73ffffffffffffffffffffffffffffffffffffffff16146104c5576040517f08c379a00000000000000000000000000000000000000000000000000000000081526004016104bc90610d19565b60405180910390fd5b6104cf6000610927565b565b60008060009054906101000a900473ffffffffffffffffffffffffffffffffffffffff16905090565b7f000000000000000000000000000000000000000000000000000000000000000081565b7f000000000000000000000000000000000000000000000000000000000000000081565b60065481565b60007f00000000000000000000000000000000000000000000000000000000000000006006541015905090565b60016020528060005260406000206000915090505481565b61059561091f565b73ffffffffffffffffffffffffffffffffffffffff166105b36104d1565b73ffffffffffffffffffffffffffffffffffffffff1614610609576040517f08c379a000000000000000000000000000000000000000000000000000000000815260040161060090610d19565b60405180910390fd5b610611610548565b156106825747600260008282546106289190610aa1565b925050819055506106376104d1565b73ffffffffffffffffffffffffffffffffffffffff166108fc479081150290604051600060405180830381858888f1935050505015801561067c573d6000803e3d6000fd5b50610745565b600254600354116106c8576040517f08c379a00000000000000000000000000000000000000000000000000000000081526004016106bf90610dab565b60405180910390fd5b60006002546003546106da9190610b26565b905080600260008282546106ee9190610aa1565b925050819055506106fd6104d1565b73ffffffffffffffffffffffffffffffffffffffff166108fc829081150290604051600060405180830381858888f19350505050158015610742573d6000803e3d6000fd5b50505b565b60003373ffffffffffffffffffffffffffffffffffffffff166107686104d1565b73ffffffffffffffffffffffffffffffffffffffff160361078c57600190506107ff565b816006541180156107fc57507f0000000000000000000000000000000000000000000000000000000000000000600160003373ffffffffffffffffffffffffffffffffffffffff1673ffffffffffffffffffffffffffffffffffffffff1681526020019081526020016000205410155b90505b919050565b6004818154811061081457600080fd5b906000526020600020016000915090505481565b61083061091f565b73ffffffffffffffffffffffffffffffffffffffff1661084e6104d1565b73ffffffffffffffffffffffffffffffffffffffff16146108a4576040517f08c379a000000000000000000000000000000000000000000000000000000000815260040161089b90610d19565b60405180910390fd5b600073ffffffffffffffffffffffffffffffffffffffff168173ffffffffffffffffffffffffffffffffffffffff1603610913576040517f08c379a000000000000000000000000000000000000000000000000000000000815260040161090a90610e3d565b60405180910390fd5b61091c81610927565b50565b600033905090565b60008060009054906101000a900473ffffffffffffffffffffffffffffffffffffffff169050816000806101000a81548173ffffffffffffffffffffffffffffffffffffffff021916908373ffffffffffffffffffffffffffffffffffffffff1602179055508173ffffffffffffffffffffffffffffffffffffffff168173ffffffffffffffffffffffffffffffffffffffff167f8be0079c531659141344cd1fd0a4f28419497f9722a3daafe3b4186f6b6457e060405160405180910390a35050565b600082825260208201905092915050565b7f43616d706169676e3a206c657373207468616e206d696e20706c656467650000600082015250565b6000610a32601e836109eb565b9150610a3d826109fc565b602082019050919050565b60006020820190508181036000830152610a6181610a25565b9050919050565b6000819050919050565b7f4e487b7100000000000000000000000000000000000000000000000000000000600052601160045260246000fd5b6000610aac82610a68565b9150610ab783610a68565b9250827fffffffffffffffffffffffffffffffffffffffffffffffffffffffffffffffff03821115610aec57610aeb610a72565b5b828201905092915050565b7f4e487b7100000000000000000000000000000000000000000000000000000000600052603260045260246000fd5b6000610b3182610a68565b9150610b3c83610a68565b925082821015610b4f57610b4e610a72565b5b828203905092915050565b610b6381610a68565b82525050565b6000602082019050610b7e6000830184610b5a565b92915050565b600073ffffffffffffffffffffffffffffffffffffffff82169050919050565b6000610baf82610b84565b9050919050565b610bbf81610ba4565b82525050565b6000602082019050610bda6000830184610bb6565b92915050565b60008115159050919050565b610bf581610be0565b82525050565b6000602082019050610c106000830184610bec565b92915050565b600080fd5b610c2481610ba4565b8114610c2f57600080fd5b50565b600081359050610c4181610c1b565b92915050565b600060208284031215610c5d57610c5c610c16565b5b6000610c6b84828501610c32565b91505092915050565b610c7d81610a68565b8114610c8857600080fd5b50565b600081359050610c9a81610c74565b92915050565b600060208284031215610cb657610cb5610c16565b5b6000610cc484828501610c8b565b91505092915050565b7f4f776e61626c653a2063616c6c6572206973206e6f7420746865206f776e6572600082015250565b6000610d036020836109eb565b9150610d0e82610ccd565b602082019050919050565b60006020820190508181036000830152610d3281610cf6565b9050919050565b7f43616d706169676e3a20596f7520646f6e2774206861766520616e797468696e60008201527f6720746f20776974686472617700000000000000000000000000000000000000602082015250565b6000610d95602d836109eb565b9150610da082610d39565b604082019050919050565b60006020820190508181036000830152610dc481610d88565b9050919050565b7f4f776e61626c653a206e6577206f776e657220697320746865207a65726f206160008201527f6464726573730000000000000000000000000000000000000000000000000000602082015250565b6000610e276026836109eb565b9150610e3282610dcb565b604082019050919050565b60006020820190508181036000830152610e5681610e1a565b905091905056fea2646970667358221220cf609273197645e532ce05e055ec7ccd655e7fe1e10433f6f15fbe8797d4469b64736f6c634300080d0033",
  "immutableReferences": {
    "145": [
      {
        "length": 32,
        "start": 389
      },
      {
        "length": 32,
        "start": 1312
      },
      {
        "length": 32,
        "start": 1356
      }
    ],
    "147": [
      {
        "length": 32,
        "start": 178
      },
      {
        "length": 32,
        "start": 1276
      },
      {
        "length": 32,
        "start": 1946
      }
    ]
  },
  "source": "// SPDX-License-Identifier: MIT\nimport \"@openzeppelin/contracts/access/Ownable.sol\";\n\npragma solidity ^0.8.0;\n\n\n/**\n    A contract where a creator can set up milestones and other users can donate to\n    Reaching each milestone will unlock certain amount for creator and provide offchain\n    sources info that milestone is unlocked and certain info can be revealed to people who donated a minimum pledge\n */\ncontract Campaign is Ownable {\n\n    mapping (address => uint256) public donations;\n\n    uint256 private _withdrawn;\n    uint256 private _withdrawableAmount;\n\n    uint256[] public milestones;\n    uint256 immutable public milestonesCount;\n    uint256 immutable public minPledge;\n    uint256 public donatedAmount;\n    uint256 public currentMilestone; // index\n   \n   \n    constructor(uint256[] memory _milestones, uint256 _minPledge) Ownable() {\n        milestones = _milestones;\n        milestonesCount = _milestones.length;\n        minPledge = _minPledge;\n    }\n\n    function campaignIsFinished() public view returns (bool){\n        return currentMilestone >= milestonesCount;\n    }\n\n    /**\n        Lets the owner of the campaign to collect money for each milestone\n        or all the money of the contract if campaign is finished\n     */\n    function collect() public onlyOwner {\n        if (campaignIsFinished()){\n            _withdrawn += address(this).balance;\n            payable(owner()).transfer(address(this).balance);\n        } else {\n            require(_withdrawableAmount > _withdrawn, \"Campaign: You don't have anything to withdraw\");\n            uint256 amount = _withdrawableAmount - _withdrawn;\n            _withdrawn += amount;\n            payable(owner()).transfer(amount);\n        }\n        \n    }\n\n    /**\n        A boolean flag that confirms whether a certain user can see\n        the content or not\n     */\n    function canSeeContent(uint256 step) public view returns (bool){\n        if (owner() == msg.sender) return true;\n        return (currentMilestone > step) && (donations[msg.sender] >= minPledge);\n    }\n\n    receive() external payable  {\n        require(msg.value >= minPledge, \"Campaign: less than min pledge\");\n        donatedAmount+= msg.value;\n        donations[msg.sender] += msg.value;\n\n        while ( (currentMilestone < milestonesCount) && (donatedAmount > milestones[currentMilestone])){\n            currentMilestone+=1;\n            _withdrawableAmount = milestones[currentMilestone-1];\n        } \n    }\n\n}\n",
  "sourcePath": "/Users/snivik/Developer/ethereum/dapps-learning/truffle/contracts/Campaign.sol",
  "compiler": {
    "name": "solc",
    "version": "0.8.13+commit.abaa5c0e.Emscripten.clang"
  },
  "schemaVersion": "3.4.7",
  "updatedAt": "2022-04-24T18:12:44.244Z",
  "networkType": "ethereum",
  "devdoc": {
    "kind": "dev",
    "methods": {
      "owner()": {
        "details": "Returns the address of the current owner."
      },
      "renounceOwnership()": {
        "details": "Leaves the contract without owner. It will not be possible to call `onlyOwner` functions anymore. Can only be called by the current owner. NOTE: Renouncing ownership will leave the contract without an owner, thereby removing any functionality that is only available to the owner."
      },
      "transferOwnership(address)": {
        "details": "Transfers ownership of the contract to a new account (`newOwner`). Can only be called by the current owner."
      }
    },
    "version": 1
  },
  "userdoc": {
    "kind": "user",
    "methods": {
      "canSeeContent(uint256)": {
        "notice": "A boolean flag that confirms whether a certain user can see the content or not"
      },
      "collect()": {
        "notice": "Lets the owner of the campaign to collect money for each milestone or all the money of the contract if campaign is finished"
      }
    },
    "notice": "A contract where a creator can set up milestones and other users can donate to Reaching each milestone will unlock certain amount for creator and provide offchain sources info that milestone is unlocked and certain info can be revealed to people who donated a minimum pledge",
    "version": 1
  }
}